:1000000065C100007EC100007CC100007AC1000013
:1000100078C1000076C1000074C1000072C1000008
:1000200070C100006EC1000007C3000076C300006D
:1000300068C1000066C1000064C1000062C1000028
:1000400060C100005EC100005CC100005AC1000038
:1000500058C1000056C1000054C1000052C1000048
:1000600050C100004EC100004CC100004AC1000058
:1000700048C1000046C1000044C1000042C1000068
:1000800040C100003EC100003CC100003AC1000078
:1000900038C1000036C1000034C1000032C1000088
:1000A00030C100002EC100002CC100002121210A16
:1000B00000203D2000000008170C04111016181530
:1000C0001A070E0A120B1909000F00130D051B0663
:1000D0001C1D140000222100200000001FA400AEFF
:1000E000000000001E232E38000000A6002400009F
:1000F000002500262700000000000000000000008E
:1001000000B8AD00000000B4000037000000009F00
:100110000000003400002D0000000000000000334B
:100120009E00A700000000003600000000B30000A1
:100130000000000000000000000000000000A1001E
:1001400000000000000000000000000000000000AF
:10015000000000000000000000000000000000009F
:10016000000000000000000000000000000000008F
:10017000000000000000000000000000000000007F
:10018000000000000000000000000000000000006F
:10019000000000000000000000000000000000005F
:1001A000000000000000000000000000000000004F
:1001B00000000000002D002E0000010000B102121E
:1001C0000002000022023B0022000072023F0021D8
:1001D0000000340209002201005D02150021010027
:1001E0004D0209000300001E0204010309040C0271
:1001F0001002030904F8011212034B006500790094
:1002000062006F00610072006400000010034D0086
:10021000660067004E0061006D0065000000040389
:10022000090409023B00020100C032090400000178
:1002300003010100092111010001223F000705838C
:100240000308000109040100010300000009211155
:10025000010001221500070584032000010631FF7B
:100260000974A1537508150026FF009520097581B2
:1002700002C005010906A10175019508050719E0ED
:1002800029E715002501810295017508810395056F
:10029000750105081901290591029501750391035E
:1002A000950675081500256805071900296881005D
:1002B000C01201000200000020C0167D04000101F0
:1002C000020001000001C10601C1260011241FBE69
:1002D000CFEFDAE0DEBFCDBF11E0A0E0B1E0ECE6A9
:1002E000FAE002C005900D92A230B107D9F721E0E3
:1002F000A2E0B1E001C01D92A531B207E1F74FD0F5
:10030000B3C37ECE5E9A279A08955E982798089583
:10031000CF93DF930F92CDB7DEB720918400309159
:100320008500820F931F9093890080938800B19A73
:10033000B19B04C00F90DF91CF91089523B1298321
:10034000898184FD09C08091060190910701019681
:1003500090930701809306012983898185FDE8CF69
:10036000809104019091050101969093050180937D
:100370000401DECFCF93C5B584E085BDC3DF8CEA31
:1003800090E04FD32FEF83EF91E0215080409040D9
:10039000E1F700C00000B9DFC5BDCF9108950F920D
:1003A000CDB7DEB780E88093610010926100569A65
:1003B0001AB814B88FEF85B98BB99CD0B2D0882306
:1003C000E9F32FEF83ED90E3215080409040E1F777
:1003D00000C0000014BC85E085BD8093810083ECE3
:1003E00084BD83E085BD80E887BD8FDF00E011E03C
:1003F00083B18983898185FD20C00F5F110F87EB51
:1004000091E00FD31092070110920601109205019E
:100410001092040177DF80E094E07ADF76DF80E0FD
:1004200094E076DF8091060190910701813090443D
:1004300048F40830E8F29EDFD9CF83B189838981FF
:1004400084FD1FC00F5F110F116085EB91E0E9D2B1
:1004500010920701109206011092050110920401FA
:1004600051DF80E09CE054DF50DF80E094E050DF1B
:1004700080910401909105018130904408F0BDCF36
:10048000D8CF002309F4B4CF8091840090918500E7
:10049000985F9093890080938800B19AB19B10C0B7
:1004A000E12FF0E0EB54FF4F049181EB90E0B9D2E3
:1004B000812FD1D201110DC05DDF11E000E098CF96
:1004C00083B18983898184FFBDCF898185FDE6CF92
:1004D00094CF8AE06ED0602F66FB660F660B60F9E2
:1004E0006270802F8F7758D0E8CF8091E80080FF2E
:1004F000FCCF089581E08093D70080EA8093D800F4
:1005000082E189BD09B400FEFDCF80E98093D80067
:100510001092E000109214018CE08093E200789435
:10052000089580911401089580911401811102C0F1
:100530008FEF08958FB7F89493E09093E90090912E
:10054000E4009E5C23E03091E80035FD0EC08FBFD3
:1005500080911401882361F38091E400891741F3AD
:100560008FB7F8942093E900EECF90910F0190930C
:10057000F1001092F100E9E0F1E091919093F10027
:1005800091E0EF30F907C9F79AE39093E8001092F1
:1005900012018FBF80E0089560930F0180930901DD
:1005A000C3DF811105C010920F0110920901BCCF69
:1005B000089590911401911102C08FEF08959FB793
:1005C000F89424E02093E90020911101222341F0C6
:1005D0002091E80025FD02C09FBFEFCF10921101CE
:1005E0002091E4002C5F34E04091E80045FD12C00A
:1005F0009FBF9091E400921304C081E080931101A9
:10060000DCCF909114019923C1F29FB7F8943093F5
:10061000E900EACF8093F1008091E80085FD08C0F1
:100620008AE38093E800109213019FBF80E0089551
:1006300082E080931301F9CF1F921FB61F921124FD
:100640008F939F93EF93FF938091E1001092E100CD
:1006500083FF0FC01092E90091E09093EB0010929D
:10066000EC0092E29093ED0098E09093F0001092ED
:10067000140182FF47C080911401882309F442C00D
:1006800080911301882379F08150809313018111A7
:100690000AC084E08093E9008091E80085FD3AC0BB
:1006A0008AE38093E80080910001882359F18091CA
:1006B00010018F5F80931001837021F583E0809398
:1006C000E9008091E80085FF1DC0809112018F5FD5
:1006D0008093120190910001891314C010921201AD
:1006E00080910F018093F1001092F100E9E0F1E0B8
:1006F00081918093F10081E0EF30F807C9F78AE338
:100700008093E800FF91EF919F918F911F901FBE02
:100710001F9018951092F100BFCF1F920F920FB645
:100720000F921124EF92FF920F931F932F933F93F9
:100730004F935F936F937F938F939F93AF93BF93E9
:10074000CF93DF93EF93FF931092E9008091E8003D
:1007500083FF72C0D091F100C091F1000091F100CF
:100760008091F100182FE090F1008091F100F82EB7
:100770002091F1008091F100382F82EF8093E80002
:10078000C63009F065C089EB91E0FC0145915491B8
:100790000417150709F04AC0FC013296459154919F
:1007A000E416F50609F042C0FC01349645915491D7
:1007B000FC013696E4912F3F310519F010F02FEF30
:1007C00030E0E21708F42E2F3EEF8091E800982FDA
:1007D0009570D9F382FD13C0822F213208F080E298
:1007E000FA01982F91112EC0480F511D922F981B7E
:1007F000892F3093E800911123C0203208F5FF9132
:10080000EF91DF91CF91BF91AF919F918F917F91A8
:100810006F915F914F913F912F911F910F91FF9099
:10082000EF900F900FBE0F901F901895079641E024
:10083000883F940709F0A9CF81E28093EB00DFCFD6
:10084000282FC3CF64916093F10091503196CACFA5
:10085000C53041F48EEF8093E80047DE00680093D6
:10086000E300CDCFC93049F5D1116AC0009314011E
:100870008EEF8093E80021E083EC92E02093E90082
:10088000AC014F5F5F4FFC0134913093EB00332399
:1008900091F0FA0144914093EC003196E491039673
:1008A000E093ED002F5F253049F78EE18093EA0059
:1008B0001092EA00A4CFCA01F5CFC83049F4D0386D
:1008C00009F03EC012DE809114018093F10012C045
:1008D000C11114C00ADED23849F4E092E900C09197
:1008E000EB00C5FBCC27C0F91092E900C093F100E2
:1008F0001092F1008EEF8093E80081CF8C2F8D7FD6
:100900008130F1F4D230E1F4012B09F061C04E2DB9
:100910004F778FEF840F843008F05AC08EEF8093AA
:10092000E8004093E900C33009F486CF89E1809361
:10093000EB0081E090E001C0880F4A95EAF7B6CF5E
:10094000E114F10409F048C0D13A01F5C13089F44D
:10095000CCDD80910F018093F1001092F100E9E06D
:10096000F1E081918093F10041E0EF30F407C9F7A5
:10097000C1CFC23021F4B9DD80910001A6CFC330D0
:1009800009F05ACFB2DD809101019FCFD13209F039
:1009900053CFC93061F48091E80082FFFCCF809191
:1009A000F100809308018BEF8093E800A3CFCA3059
:1009B00029F410930001109212019CCFCB3009F062
:1009C0003BCF0093010196CF1092F10091501BC0D4
:1009D000E114F10409F430CFEA94EF2809F02CCFA8
:1009E000C13009F029CF3EEFD13A09F025CF8091EF
:1009F000E800982F9570D9F382FD01CF822F213224
:100A000008F080E2982F9111DFCF922F981B892F49
:100A10003093E800911103C0203208F4F0CE282F63
:100A2000E6CF1F93CF93DF93EC01FE0114911123C6
:100A300041F01A3011F48DE0BCDD812FBADD219632
:100A4000F4CFDF91CF911F91089597E38A3008F496
:100A500090E3890FAECDCF93C82F82958F70F5DFCD
:0C0A60008C2F8F70CF91F1CFF894FFCF56
:020A6C007D010A
:00000001FF
